:100000000EC028C027C026C026C024C023C022C0DE
:1000100021C020C01FC01EC01DC01CC01BC0112499
:100020001FBECFE5D2E0DEBFCDBF11E0A0E6B0E05D
:10003000EEE3F7E002C005900D92AE37B107D9F7B5
:1000400021E0AEE7B1E001C01D92A539B207E1F7AA
:10005000A2D273C3D5CF1F920F920FB60F92112465
:100060008F939F93AF93BF9380917E0190917F0177
:10007000A0918001B09181010196A11DB11D8093D5
:100080007E0190937F01A0938001B0938101BF9185
:10009000AF919F918F910F900FBE0F901F90189569
:1000A00087B3836187BB8AB5816A8ABD83B7816064
:1000B00083BF80B7826080BF8CB580668CBD8DB5F4
:1000C0008FEF8DBD89B7846089BF78940895C29AF7
:1000D000BB9A08958091600090916100039769F444
:1000E0008091820190E0019667E070E0BED280933B
:1000F0008201682F81E090E0FAC20895609160006B
:10010000709161006F5F7F4F63707727709361001C
:100110006093600090E080E0EAD28091600090916E
:100120006100029759F440917E0150917F016091E6
:1001300080017091810182E090E0E7C20895CF9242
:10014000DF92EF92FF926B017C018091840190918C
:100150008501A0918601B0918701A7019B01281B11
:10016000390B4A0B5B0BDA01C901B29B19C081370D
:100170009240A105B10528F080918301811101C051
:10018000A9DFC0928401D0928501E0928601F092AD
:10019000870110928301FF90EF90DF90CF90089538
:1001A0008F399442A105B105B0F38091830181118B
:1001B000F2CFA4DF81E080938301EDCFCF92DF9275
:1001C000EF92FF920F931F93209160003091610096
:1001D00022303105C1F023303105B9F0213031052D
:1001E00039F5C5D08C012227332708BD072F182FDA
:1001F000292F332709BD6BBD1F910F91FF90EF9001
:10020000DF90CF900895F8D0EDCFE0918201F0E03B
:10021000EE0FFF1FEE0FFF1FEE59FE4FC080D18083
:10022000E280F3809B01AC01C701B60148D1DACF6F
:1002300060E070E0CB01D6CF893C60F490E06FEFD6
:1002400070E0D5D168EC70E0FCD1FB01EE59FF4FB6
:100250008081089580E00895CF92DF92EF92FF921F
:100260002AE5C22E22E6D22E22E0E22EF12CA701B0
:1002700096010ED22FEF30E040E050E0C9D1A70147
:10028000960106D2822FFF90EF90DF90CF900895D5
:10029000282F50E0E62FE81BFF0BCF01BA01A7D1B2
:1002A0006FEF70E0E2D1822F860F08952DE036E6E1
:1002B00049E150E0ADD1615A7C408149934C0895A9
:1002C0004F925F926F927F928F929F92AF92BF9266
:1002D000CF92DF92EF92FF920F931F934B015C013D
:1002E0006501EE24FF2410E0492C5A2C6B2C772456
:1002F000642F6C19770BCB01B80179D1EFEFF0E0E7
:10030000BF01B3D1C60ED12CF12CE12C7601DD2436
:10031000CC24422F4819550BCA01B80168D1BF013E
:10032000A4D1860EC80CD11CE11CF11C632F6419EA
:10033000770BCB01B8015BD1BF0197D1460E512C91
:10034000542C4424C701B601640D751D811D911DF7
:100350001F910F91FF90EF90DF90CF90BF90AF90E3
:100360009F908F907F906F905F904F900895CF9265
:10037000DF92EF92FF920F931F93CF93DF932AE5C3
:10038000C22E22E6D22E22E0E22EF12CA701960107
:100390007FD12FEF30E040E050E03AD1A701960145
:1003A00077D1122F822F48DFC82F85E5810F44DFD8
:1003B000D82F8AEA810F40DF4C2F50E070E060E0D8
:1003C000BA0155274427480F511D611D711D8D2FFE
:1003D00090E0982F88278A019B01080F191F211D83
:1003E000311DC901B801DF91CF911F910F91FF908D
:1003F000EF90DF90CF9008958F929F92AF92BF922F
:10040000CF92DF92EF92FF920F9322E13AE740E022
:1004100050E03ED149015A016B017C012DE036E6E6
:1004200049E150E0C501B401F3D0615A7C408149F3
:10043000934C27E030E040E050E02AD1660F771F70
:10044000660F771F6E597E4FFB0180809180A280DE
:10045000B380F9E0CF16FDE3DF06E104F10430F5E7
:100460002FEF30E040E050E0C701B601D1D029E0E5
:100470003DE340E050E00CD1609191017091920118
:100480008091930190919401022FA501940118DFAE
:100490004B015C01C501B4010F91FF90EF90DF901B
:1004A000CF90BF90AF909F908F90089580929101D0
:1004B00090929201A0929301B0929401EBCF8F920F
:1004C0009F92AF92BF92CF92DF92EF92FF920F93E3
:1004D0006B017C0180918D0190918E01A0918F0123
:1004E000B09190018C159D05AE05BF0509F447C07C
:1004F00080918C0181110BC0209388013093890178
:1005000040938A0150938B0181E080938C0180910C
:10051000880190918901A0918A01B0918B014901D4
:100520005A01881A990AAA0ABB0AC501B4016A309D
:100530002DE372078105910550F0C0928D01D09294
:100540008E01E0928F01F092900110928C012FEFBA
:1005500030E040E050E05CD029E03DE340E050E096
:1005600097D060918D0170918E0180918F01909153
:100570009001022FA7019601A3DE6B017C01C70148
:10058000B6010F91FF90EF90DF90CF90BF90AF90AA
:100590009F908F90089584DD9ADD90E080E09AD05E
:1005A00090E0909361008093600081E090E092D0B1
:1005B0008093820182E090E095D060937E017093F9
:1005C0007F0180938001909381018FB7F894C09050
:1005D0007E01D0907F01E0908001F09081018FBF7B
:1005E000C701B601ACDDC701B601E8DDEECF0024DE
:1005F000552704C0080E591F880F991F009729F02E
:1006000076956795B8F37105B9F7802D952F089504
:10061000EE27FF27AA27BB2708C0A20FB31FE41F9E
:10062000F51F220F331F441F551F96958795779509
:10063000679598F37040A9F7009799F7BD01CF012E
:100640000895AA1BBB1B51E107C0AA1FBB1FA61719
:10065000B70710F0A61BB70B881F991F5A95A9F76B
:1006600080959095BC01CD01089597FB072E16F457
:10067000009406D077FD08D0E4DF07FC05D03EF4F7
:10068000909581959F4F0895709561957F4F08953E
:10069000A1E21A2EAA1BBB1BFD010DC0AA1FBB1F86
:1006A000EE1FFF1FA217B307E407F50720F0A21BF8
:1006B000B30BE40BF50B661F771F881F991F1A9465
:1006C00069F760957095809590959B01AC01BD018F
:1006D000CF010895E199FECF9FBB8EBBE09A992789
:1006E0008DB30895A6E1B0E044E050E018C0262F95
:1006F000E199FECF1CBA9FBB8EBB2DBB0FB6F89401
:10070000E29AE19A0FBE01960895242FF1DF252F7A
:10071000EFDF00C0ECDF272FEBCFDC01CB01FC01CA
:10072000E199FECF06C0FFBBEEBBE09A31960DB259
:0E0730000D9241505040B8F70895F894FFCF55
:10073E000100000000010101020203040505060785
:10074E00090A0B0C0E0F1112141517191B1D1F2160
:10075E002325282A2C2F313436393B3E4143464936
:10076E004C4F5255585A5D6164676A6D7073767955
:10077E007C808386898C8F9295989B9EA2A5A7AA32
:10078E00ADB0B3B6B9BCBEC1C4C6C9CBCED0D3D53D
:10079E00D7DADCDEE0E2E4E6E8EAEBEDEEF0F1F3E8
:1007AE00F4F5F6F8F9FAFAFBFCFDFDFEFEFEFFFF8E
:1007BE00FFFFFFFFFFFEFEFEFDFDFCFBFAFAF9F860
:1007CE00F6F5F4F3F1F0EEEDEBEAE8E6E4E2E0DE66
:1007DE00DCDAD7D5D3D0CECBC9C6C4C1BEBCB9B670
:1007EE00B3B0ADAAA7A5A29E9B9895928F8C898631
:1007FE0083807C797673706D6A6764615D5A585533
:10080E00524F4C494643413E3B393634312F2C2A08
:10081E00282523211F1D1B1917151412110F0E0C3D
:10082E000B0A090706050504030202010101000077
:10083E000000D300940082004B00FF00000000FF78
:0E084E00000000FFFF00007FFF000000FF0021
:00000001FF
