:100000000EC028C027C026C025C024C023C022C0DF
:1000100021C020C01FC01EC01DC01CC01BC0112499
:100020001FBECFE5D2E0DEBFCDBF11E0A0E6B0E05D
:10003000EAE9F1E002C005900D92A036B107D9F7C8
:1000400021E0A0E6B1E001C01D92A236B207E1F7BF
:1000500068D0A1C0D5CF87B3836187BB8AB5836AD7
:100060008ABD83B7816083BF80B7816080BF8CB554
:1000700080668CBD8DB58FEF8DBD0895C29ABB9AF9
:100080000895CF93DF93282F30E0F901E05AFF4F16
:10009000808188BDC9018B5A9F4FCFEFD0E0BE0150
:1000A00053D0FC01E05AFF4F808189BDC9018655BC
:1000B0009F4FBE0149D0FC01E05AFF4F80818BBDAC
:1000C000DF91CF9108958FEF89BD8BBD88BD0895D5
:1000D00086B331E0482F447082FD30E094E020E0A8
:1000E00051E0EFE7FEE33197F1F700C0000086B37F
:1000F00082FB882780F98527381321E0915089F702
:1001000021110EC041110AC080916101811106C008
:1001100081E08093600180936101089510926101F4
:10012000089599DFABDFD4DF80916001882329F047
:1001300088B5809588BD109260018FED9EE2019791
:10014000F1F700C00000EFCF97FB072E16F40094E4
:1001500006D077FD08D00BD007FC05D03EF4909573
:1001600081959F4F0895709561957F4F0895AA1BC3
:10017000BB1B51E107C0AA1FBB1FA617B70710F092
:10018000A61BB70B881F991F5A95A9F780959095C4
:0A019000BC01CD010895F894FFCFE3
:10019A0080868C92989EA5AAB0B6BCC1C6CBD0D593
:1001AA00DADEE2E6EAEDF0F3F5F8FAFBFDFEFEFF31
:1001BA00FFFFFEFEFDFBFAF8F5F3F0EDEAE6E2DEFC
:1001CA00DAD5D0CBC6C1BCB6B0AAA59E98928C8609
:1001DA008079736D67615A554F49433E39342F2AE6
:1001EA0025211D1915120F0C0A0705040201010029
:1001FA0000000000000000000000000000000000F5
:10020A0000000000000000000000000000000000E4
:10021A0000000000000000000000000000000000D4
:10022A0000000000000000000000000000000000C4
:10023A0000000000000000000000000000000000B4
:10024A0000000000000000000000000000000000A4
:10025A000000000000000000000000000000000094
:10026A000000000000000000000000000000000084
:10027A0000000101020405070A0C0F1215191D21BD
:10028A00252A2F34393E43494F555A61676D737990
:00000001FF
