:100000000EC028C027C026C026C024C023C022C0DE
:1000100021C020C01FC01EC01DC01CC01BC0112499
:100020001FBECFE5D2E0DEBFCDBF11E0A0E6B0E05D
:10003000E2E7F6E002C005900D92A238B107D9F7C9
:1000400021E0A2E8B1E001C01D92A339B207E1F7B7
:1000500098D10DC3D5CF1F920F920FB60F921124D6
:100060008F939F93AF93BF9380918201909183016F
:10007000A0918401B09185010196A11DB11D8093CD
:10008000820190938301A0938401B0938501BF9175
:10009000AF919F918F910F900FBE0F901F90189569
:1000A00087B3836187BB8AB5816A8ABD83B7816064
:1000B00083BF80B7826080BF8CB580668CBD8DB5F4
:1000C0008FEF8DBD89B7846089BF78940895C29AF7
:1000D000BB9A08950F931F93AB01BC0180918701D8
:1000E00090918801A0918901B0918A018A019B01B8
:1000F000081B190B2A0B3B0BD901C801B29B3EC050
:1001000081379240A105B10518F1809186018111D6
:100110001FC080918F0190919001A0919101B091A9
:10012000920186309105A105B105F8F42091600097
:100130003091610023303105C1F40196A11DB11D3C
:1001400080938F0190939001A0939101B0939201BD
:1001500040938701509388016093890170938A01CD
:10016000109286011F910F91089510928F011092A5
:1001700090011092910110929201EACF89309D4333
:10018000A105B10578F3809186018111EBCF8091B3
:100190006000909161008330910540F01092610001
:1001A0001092600081E080938601DCCF01969093ED
:1001B000610080936000F6CF8F929F92AF92BF92C2
:1001C000CF92DF92EF92FF9236E3832E3EE6932E9C
:1001D000AA24A394B12CA501940138D12FEF30E0CB
:1001E00040E050E0F3D0A501940130D1822F40913E
:1001F00060005091610041305105F1F0C8F042308B
:100200005105F1F043305105E9F0C701AA27BB279A
:1002100088BDBB27AF2D9E2D8D2D89BDCBBCFF90FA
:10022000EF90DF90CF90BF90AF909F908F90089508
:10023000C12CD12C7601E9CF24D06B017C01E5CF14
:1002400058D0FBCFE0918F01F0919001EE0FFF1F8E
:10025000EE0FFF1FEA59FE4FC080D180E280F3808D
:10026000D4CF893C60F490E06FEF70E09ED068ECF2
:1002700070E0C5D0FB01EA59FF4F8081089580E00E
:100280000895EF92FF920F931F93CF93DF93082F60
:10029000E8DFC82F10E0C8018B5A9F4FEE24EA9484
:1002A000F12CB701C0D0DDDFD82FC80186559F4F94
:1002B000B701B9D0D6DF4C2F50E070E060E0BA0152
:1002C00055274427480F511D611D711D8D2F90E04A
:1002D000982F88278A019B01080F191F211D311DA6
:1002E000C901B801DF91CF911F910F91FF90EF905D
:1002F0000895AF92BF92CF92DF92EF92FF920F9349
:100300001F9381112DC088D19C01932F990F990BB8
:1003100087E0A82EB12CC12CD12CE12CF12C00E0CF
:1003200010E0492F592F692F792F892FB1D0AA2496
:10033000AA94EFE7BE2EDCD0E22FF0E0EE0FFF1F15
:10034000EE0FFF1FEA59FE4F80819181A281B38198
:1003500080938B0190938C01A0938D01B0938E01BB
:1003600060918B0170918C0180918D0190918E0133
:100370001F910F91FF90EF90DF90CF90BF90AF90C3
:1003800008958EDEA4DE8FB7F894C0908201D090DD
:100390008301E0908401F09085018FBFC701B60111
:1003A00099DEC701B60108DFEECF0024552704C04F
:1003B000080E591F880F991F009729F076956795A9
:1003C000B8F37105B9F7802D952F0895EE27FF2713
:1003D000AA27BB2708C0A20FB31FE41FF51F220FD7
:1003E000331F441F551F969587957795679598F30A
:1003F0007040A9F7009799F7BD01CF010895AA1B96
:10040000BB1B51E107C0AA1FBB1FA617B70710F0FF
:10041000A61BB70B881F991F5A95A9F78095909531
:10042000BC01CD01089597FB072E16F4009406D069
:1004300077FD08D0E4DF07FC05D03EF49095819568
:100440009F4F0895709561957F4F0895A1E21A2EF0
:10045000AA1BBB1BFD010DC0AA1FBB1FEE1FFF1F68
:10046000A217B307E407F50720F0A21BB30BE40BB8
:10047000F50B661F771F881F991F1A9469F76095FF
:100480007095809590959B01AC01BD01CF010895B9
:10049000DF93CF939F92A0E49A2E0024D001E00135
:1004A000F00116950795F794E794D794C794B794FD
:1004B000A79448F41068A20FB31FC41FD51FE61FEE
:1004C000F71F081E191E220F331F441F551F661FDA
:1004D000771F881F991F9A9421F79D01AE01BF01D4
:1004E000C00111249F90CF91DF910895689401C0BD
:1004F000E8948F929F92CF93DF9305D0DF91CF91B5
:100500009F908F90089588249924F401E401B0E429
:100510001B2ED4019D158E049F04E007F10738F4CB
:10052000FC014B01CA01B901AD019E011694220FD5
:10053000331F441F551F661F771F881F991F881C74
:10054000991CEE1FFF1FCC1FDD1FAA1FBB1F8A14A3
:100550009B04EC05FD05CE05DF05A007B10748F0BB
:100560008A189B08EC09FD09CE09DF09A00BB10B25
:1005700021601A94E1F62EF49401AF01BE01CD0181
:10058000000C08958F929F92AF92BF92CF92DF920C
:10059000EF92FF92CF93DF93EC01688179818A819A
:1005A0009B81611571058105910521F464E279ED66
:1005B0008BE597E02DE133EF41E050E03CD049017D
:1005C0005A0127EA31E440E050E000DF6B017C0192
:1005D0002CEE34EF4FEF5FEFC501B401F7DEDC0125
:1005E000CB018C0D9D1DAE1DBF1DB7FF03C0019734
:1005F000A109B04888839983AA83BB839F77DF9141
:10060000CF91FF90EF90DF90CF90BF90AF909F90F1
:100610008F900895B7DF089582E690E0B3DF0895E4
:10062000B0E0A0E08093620090936300A093640028
:10063000B09365000895052E97FB16F400940FD033
:1006400057FD05D003DF07FC02D046F408C05095E3
:100650004095309521953F4F4F4F5F4F08959095AE
:100660008095709561957F4F8F4F9F4F0895F894B7
:02067000FFCFBA
:100672000200010000000000000101010202030467
:1006820005050607090A0B0C0E0F1112141517198E
:100692001B1D1F212325282A2C2F313436393B3E9E
:1006A200414346494C4F5255585A5D6164676A6DE1
:1006B200707376797C808386898C8F9295989B9EC5
:1006C200A2A5A7AAADB0B3B6B9BCBEC1C4C6C9CBB8
:1006D200CED0D3D5D7DADCDEE0E2E4E6E8EAEBED31
:1006E200EEF0F1F3F4F5F6F8F9FAFAFBFCFDFDFE93
:1006F200FEFEFFFFFFFFFFFFFFFEFEFEFDFDFCFB18
:10070200FAFAF9F8F6F5F4F3F1F0EEEDEBEAE8E6D1
:10071200E4E2E0DEDCDAD7D5D3D0CECBC9C6C4C1A1
:10072200BEBCB9B6B3B0ADAAA7A5A29E9B9895923E
:100732008F8C898683807C797673706D6A67646139
:100742005D5A5855524F4C494643413E3B39363427
:10075200312F2C2A282523211F1D1B19171514128E
:10076200110F0E0C0B0A090706050504030202010C
:10077200010100000000D300940082004B00FF0042
:10078200000000FF000000FFFF00007FFF000000EC
:02079200FF0066
:00000001FF
