:100000000EC028C027C026C026C024C023C022C0DE
:1000100021C020C01FC01EC01DC01CC01BC0112499
:100020001FBECFE5D2E0DEBFCDBF11E0A0E6B0E05D
:10003000EEE4F6E002C005900D92A038B107D9F7C2
:1000400021E0A0E8B1E001C01D92A739B207E1F7B5
:1000500086D1FBC2D5CF1F920F920FB60F921124FB
:100060008F939F93AF93BF93809180019091810173
:10007000A0918201B09183010196A11DB11D8093D1
:10008000800190938101A0938201B0938301BF917D
:10009000AF919F918F910F900FBE0F901F90189569
:1000A00087B3836187BB8AB5816A8ABD83B7816064
:1000B00083BF80B7826080BF8CB580668CBD8DB5F4
:1000C0008FEF8DBD89B7846089BF78940895C29AF7
:1000D000BB9A089580919601863020F48F5F8093BB
:1000E000960108951092960108950895CF92DF9297
:1000F000EF92FF926B017C018091850190918601C6
:10010000A0918701B0918801A7019B01281B390BA1
:100110004A0B5B0BDA01C901B29B19C081379240CF
:10012000A105B10528F080918401811101C0D2DFC1
:10013000C0928501D0928601E0928701F0928801F9
:1001400010928401FF90EF90DF90CF900895893056
:100150009D43A105B105B0F3809184018111F2CFD7
:1001600081E080938401EECF0F931F939B01AC013C
:10017000E0919601F0E0EE0FFF1FEE0FFF1FEC592C
:10018000FE4F6081718182819381A1D08C012227F1
:10019000332708BD072F182F292F332709BD6BBD23
:1001A0001F910F910895262F681760F090E06FEF70
:1001B00070E0E9D0622F70E0F7D0FB01EC59FF4FFF
:1001C0008081089580E00895EF92FF920F931F932E
:1001D000CF93DF93082F68ECE6DFC82F10E0C8014B
:1001E0008B5A9F4FEE24EA94F12CB701F1D068ECC2
:1001F000DADFD82FC80186559F4FB701E9D068ECE8
:10020000D2DF4C2F50E070E060E0BA015527442760
:10021000480F511D611D711D8D2F90E0982F88276B
:100220008A019B01080F191F211D311DC901B80149
:10023000DF91CF911F910F91FF90EF900895AF92B2
:10024000BF92CF92DF92EF92FF920F931F93811193
:100250002DC095D19C01932F990F990B87E0A82E63
:10026000B12CC12CD12CE12CF12C00E010E0492F55
:10027000592F692F792F892FBED0AA24AA94EFE78E
:10028000BE2EE9D0E22FF0E0EE0FFF1FEE0FFF1FB2
:10029000EC59FE4F80819181A281B38180939201BC
:1002A00090939301A0939401B09395016091920172
:1002B0007091930180919401909195011F910F91FC
:1002C000FF90EF90DF90CF90BF90AF900895CF92C6
:1002D000DF92EF92FF92C0908E01D0908F01E0905C
:1002E0009001F0909101C616D706E806F90691F143
:1002F000E0918D01E1110BC02093890130938A01B7
:1003000040938B0150938C01E1E0E0938D01C0900C
:100310008901D0908A01E0908B01F0908C012C191A
:100320003D094E095F092A303D434105510550F012
:1003300060938E0170938F0180939001909391014F
:1003400010928D0160918E0170918F0180919001CA
:1003500090919101FF90EF90DF90CF900895A0DEF3
:10036000B6DE8FB7F894C0908001D0908101E09004
:100370008201F09083018FBFC701B601B7DEC701CC
:10038000B601F2DEEECF0024552704C0080E591F37
:10039000880F991F009729F076956795B8F3710536
:1003A000B9F7802D952F0895AA1BBB1B51E107C0FB
:1003B000AA1FBB1FA617B70710F0A61BB70B881FF5
:1003C000991F5A95A9F780959095BC01CD01089584
:1003D00097FB072E16F4009406D077FD08D0E4DFD3
:1003E00007FC05D03EF4909581959F4F0895709538
:1003F00061957F4F0895DF93CF939F92A0E49A2E4B
:100400000024D001E001F00116950795F794E794D8
:10041000D794C794B794A79448F41068A20FB31F59
:10042000C41FD51FE61FF71F081E191E220F331FFA
:10043000441F551F661F771F881F991F9A9421F725
:100440009D01AE01BF01C00111249F90CF91DF91AA
:100450000895689401C0E8948F929F92CF93DF93A0
:1004600005D0DF91CF919F908F9008958824992493
:10047000F401E401B0E41B2ED4019D158E049F0409
:10048000E007F10738F4FC014B01CA01B901AD01E5
:100490009E011694220F331F441F551F661F771F9E
:1004A000881F991F881C991CEE1FFF1FCC1FDD1F82
:1004B000AA1FBB1F8A149B04EC05FD05CE05DF05B2
:1004C000A007B10748F08A189B08EC09FD09CE097E
:1004D000DF09A00BB10B21601A94E1F62EF4940110
:1004E000AF01BE01CD01000C08958F929F92AF9293
:1004F000BF92CF92DF92EF92FF92CF93DF93EC0106
:10050000688179818A819B816115710581059105D9
:1005100021F464E279ED8BE597E02DE133EF41E0E2
:1005200050E055D049015A0127EA31E440E050E05B
:1005300035D06B017C012CEE34EF4FEF5FEFC5013E
:10054000B4012CD0DC01CB018C0D9D1DAE1DBF1D57
:10055000B7FF03C00197A109B04888839983AA8394
:10056000BB839F77DF91CF91FF90EF90DF90CF908B
:10057000BF90AF909F908F900895B7DF089580E669
:1005800090E0B3DF0895B0E0A0E080936000909326
:100590006100A0936200B09363000895EE27FF27E7
:1005A000AA27BB2708C0A20FB31FE41FF51F220F05
:1005B000331F441F551F969587957795679598F338
:1005C0007040A9F7009799F7BD01CF010895052E56
:1005D00097FB16F400940FD057FD05D014D007FCFC
:1005E00002D046F408C050954095309521953F4F74
:1005F0004F4F5F4F089590958095709561957F4F0F
:100600008F4F9F4F0895A1E21A2EAA1BBB1BFD011D
:100610000DC0AA1FBB1FEE1FFF1FA217B307E407E1
:10062000F50720F0A21BB30BE40BF50B661F771F39
:10063000881F991F1A9469F7609570958095909519
:0E0640009B01AC01BD01CF010895F894FFCFDE
:10064E000100000000000001010102020304050583
:10065E000607090A0B0C0E0F1112141517191B1D84
:10066E001F212325282A2C2F313436393B3E414376
:10067E0046494C4F5255585A5D6164676A6D7073A6
:10068E0076797C808386898C8F9295989B9EA2A585
:10069E00A7AAADB0B3B6B9BCBEC1C4C6C9CBCED085
:1006AE00D3D5D7DADCDEE0E2E4E6E8EAEBEDEEF015
:1006BE00F1F3F4F5F6F8F9FAFAFBFCFDFDFEFEFE99
:1006CE00FFFFFFFFFFFFFFFEFEFEFDFDFCFBFAFA44
:1006DE00F9F8F6F5F4F3F1F0EEEDEBEAE8E6E4E224
:1006EE00E0DEDCDAD7D5D3D0CECBC9C6C4C1BEBC12
:1006FE00B9B6B3B0ADAAA7A5A29E9B9895928F8CC2
:10070E00898683807C797673706D6A6764615D5AC1
:10071E005855524F4C494643413E3B393634312FA2
:10072E002C2A282523211F1D1B1917151412110FF2
:10073E000E0C0B0A0907060505040302020101014E
:10074E0000000000D300940082004B00FF00000068
:10075E0000FF000000FFFF00007FFF000000FF0011
:00000001FF
