:100000000EC01DC01CC01BC01AC019C018C017C02C
:1000100016C015C014C013C012C011C010C01124E6
:100020001FBECFE5D2E0DEBFCDBF20E0A0E6B0E04E
:1000300001C01D92A536B207E1F763D06CC0E0CFD6
:1000400087B3836187BB8AB5836A8ABD83B78160C2
:1000500083BF80B7816080BF8CB580668CBD8DB555
:100060008FEF8DBD0895C29ABB9A089596B321E093
:1000700092FB992790F9922780916400891759F093
:1000800086B382FB882780F98227809364001092D0
:100090006300109262008091620090916300069765
:1000A00070F0809164008823E9F0809161008111F3
:1000B00006C08BB580958BBD81E0809361008091F7
:1000C000620090916300853F21E0920780F02091CB
:1000D000600021110CC089B5809589BD81E08093B5
:1000E000600008951092610010926000E8CF0196C0
:1000F000909363008093620008958BB580958BBDCB
:1001000008959EDFB0DFB2DF8FE79EE30197F1F73E
:0A01100000C00000F8CFF894FFCF04
:00000001FF
