:100000000EC028C027C026C025C024C023C022C0DF
:1000100021C020C01FC01EC01DC01CC01BC0112499
:100020001FBECFE5D2E0DEBFCDBF11E0A0E6B0E05D
:10003000E2E0F7E002C005900D92A438B107D9F7CD
:1000400021E0A4E8B1E001C01D92AC38B207E1F7AD
:100050007DD155C3D5CF87B3836187BB8AB5836A0A
:100060008ABD83B7816083BF80B7816080BF8CB554
:1000700080668CBD8DB58FEF8DBD0895C29ABB9AF9
:1000800008950895089580918601909187018F3F8A
:10009000980729F001969093870180938601B29B7F
:1000A00004C010928701109286010895CF92DF92CA
:1000B000EF92FF9280918401909185016FEF70E043
:1000C0005BD1862F6BD06B017C0117D088BDC70137
:1000D000B60114D089BDC701B60112D08BBD809185
:1000E00084019091850145969093850180938401C8
:1000F000FF90EF90DF90CF9008950895872F089597
:10010000862F089560E070E0CB010895893C60F48B
:1001100090E06FEF70E01FD168EC70E02DD1FB0133
:10012000E859FF4F8081089580E00895EF92FF9293
:100130000F931F93CF93DF93082FE8DFC82F10E0B2
:10014000C8018B5A9F4FEE24EA94F12CB70128D1B5
:10015000DDDFD82FC80186559F4FB70121D1D6DFEB
:100160004C2F50E070E060E0BA0155274427480F5B
:10017000511D611D711D8D2F90E0982F88278A01D8
:100180009B01080F191F211D311DC901B801DF9105
:10019000CF911F910F91FF90EF9008952F923F9272
:1001A0004F925F926F927F928F929F92AF92BF9287
:1001B000CF92DF92EF92FF920F931F93CF93DF9333
:1001C000CDB7DEB729970FB6F894DEBF0FBECDBF0F
:1001D000898381113DC02DD2392F409188015091E2
:1001E000890160918A0170918B0140936000509366
:1001F00061006093620070936300282F990F990B40
:1002000087E0A82EB12CC12CD12CE12CF12C00E0E0
:1002100010E0492F592F692F792F892FD4D0AA2484
:10022000AA94EFE7BE2E2AD1E22FF0E0EE0FFF1FD7
:10023000EE0FFF1FE859FE4F80819181A281B381AB
:100240008093880190938901A0938A01B0938B01D8
:100250008091600090916100A0916200B091630074
:100260001C018FEF90E00981801B9109192F110F5C
:10027000110B5C01C12ED12EE12EF12E012F910127
:10028000AD0160E070E080E090E09DD0AA24AA94E7
:10029000B12CC12CD12CE12CF12C00E010E0EED0DF
:1002A00019012A018091880190918901A0918A0108
:1002B000B0918B018C019D0140E050E0BA018A832E
:1002C0001B83AC833D834E835F8368877987A980D6
:1002D00000E010E02A813B814C815D8160E070E0AC
:1002E00080E090E070D0AA24AA94C8D059016A0195
:1002F000C201B1016A0D7B1D8C1D9D1D29960FB693
:10030000F894DEBF0FBECDBFDF91CF911F910F914B
:10031000FF90EF90DF90CF90BF90AF909F908F9025
:100320007F906F905F904F903F902F90089560E086
:1003300070E08FEF90E0089560E07FEF80E090E064
:1003400008956FEF70E080E090E0089584DE96DE1F
:1003500090E080E008950024552704C0080E591F3E
:10036000880F991F009729F076956795B8F3710566
:10037000B9F7802D952F0895AA1BBB1B51E107C02B
:10038000AA1FBB1FA617B70710F0A61BB70B881F25
:10039000991F5A95A9F780959095BC01CD010895B4
:1003A00097FB072E16F4009406D077FD08D0E4DF03
:1003B00007FC05D03EF4909581959F4F0895709568
:1003C00061957F4F0895DF93CF939F92A0E49A2E7B
:1003D0000024D001E001F00116950795F794E79409
:1003E000D794C794B794A79448F41068A20FB31F8A
:1003F000C41FD51FE61FF71F081E191E220F331F2B
:10040000441F551F661F771F881F991F9A9421F755
:100410009D01AE01BF01C00111249F90CF91DF91DA
:100420000895689401C0E894F92FF12B0AF027C0D1
:10043000A0E0B0E0EDE1F2E081C0092E05941AF4ED
:1004400067D0112392F4F0E80F26FFEFE094F094C8
:1004500000951095B094C094D094A194BF0ACF0A8F
:10046000DF0AEF0AFF0A0F0B1F0B13D007FC50D057
:10047000CDB7DEB7ECE07EC0689401C0E8948F92FF
:100480009F92CF93DF9305D0DF91CF919F908F9074
:10049000089588249924F401E401B0E41B2ED401CA
:1004A0009D158E049F04E007F10738F4FC014B0111
:1004B000CA01B901AD019E011694220F331F441FDA
:1004C000551F661F771F881F991F881C991CEE1FD8
:1004D000FF1FCC1FDD1FAA1FBB1F8A149B04EC0546
:1004E000FD05CE05DF05A007B10748F08A189B0877
:1004F000EC09FD09CE09DF09A00BB10B21601A94AC
:10050000E1F62EF49401AF01BE01CD01000C089577
:100510006095709580959095309540955095219572
:100520003F4F4F4F5F4F6F4F7F4F8F4F9F4F0895FC
:100530002F923F924F925F926F927F928F929F92F3
:10054000AF92BF92CF92DF92EF92FF920F931F93E1
:10055000CF93DF93CDB7DEB7CA1BDB0B0FB6F89492
:10056000DEBF0FBECDBF09942A88398848885F84D2
:100570006E847D848C849B84AA84B984C884DF8043
:10058000EE80FD800C811B81AA81B981CE0FD11D27
:100590000FB6F894DEBF0FBECDBFED0108958F9268
:1005A0009F92AF92BF92CF92DF92EF92FF92CF9342
:1005B000DF93EC01688179818A819B8161157105E6
:1005C0008105910521F464E279ED8BE597E02DE159
:1005D00033EF41E050E055D049015A0127EA31E4B8
:1005E00040E050E035D06B017C012CEE34EF4FEF52
:1005F0005FEFC501B4012CD0DC01CB018C0D9D1D3A
:10060000AE1DBF1DB7FF03C00197A109B048888385
:100610009983AA83BB839F77DF91CF91FF90EF905F
:10062000DF90CF90BF90AF909F908F900895B7DFED
:10063000089584E690E0B3DF0895B0E0A0E08093F1
:10064000640090936500A0936600B09367000895DE
:10065000EE27FF27AA27BB2708C0A20FB31FE41F5E
:10066000F51F220F331F441F551F969587957795C9
:10067000679598F37040A9F7009799F7BD01CF01EE
:100680000895052E97FB16F400940FD057FD05D062
:1006900014D007FC02D046F408C050954095309520
:1006A00021953F4F4F4F5F4F0895909580957095DE
:1006B00061957F4F8F4F9F4F0895A1E21A2EAA1B7D
:1006C000BB1BFD010DC0AA1FBB1FEE1FFF1FA21702
:1006D000B307E407F50720F0A21BB30BE40BF50BFF
:1006E000661F771F881F991F1A9469F76095709588
:1006F000809590959B01AC01BD01CF010895F894C0
:02070000FFCF29
:10070200FFFFFF00010000000000000101010202E2
:10071200030405050607090A0B0C0E0F1112141526
:1007220017191B1D1F212325282A2C2F3134363956
:100732003B3E414346494C4F5255585A5D616467AE
:100742006A6D707376797C808386898C8F92959896
:100752009B9EA2A5A7AAADB0B3B6B9BCBEC1C4C682
:10076200C9CBCED0D3D5D7DADCDEE0E2E4E6E8EAE4
:10077200EBEDEEF0F1F3F4F5F6F8F9FAFAFBFCFD25
:10078200FDFEFEFEFFFFFFFFFFFFFFFEFEFEFDFD83
:10079200FCFBFAFAF9F8F6F5F4F3F1F0EEEDEBEA18
:1007A200E8E6E4E2E0DEDCDAD7D5D3D0CECBC9C6C8
:1007B200C4C1BEBCB9B6B3B0ADAAA7A5A29E9B9850
:1007C20095928F8C898683807C797673706D6A6747
:1007D20064615D5A5855524F4C494643413E3B393C
:1007E2003634312F2C2A282523211F1D1B191715BA
:1007F2001412110F0E0C0B0A090706050504030259
:100802000201010100000000D300940082004B00AD
:10081200FF00000000FF000000FFFF00007FFF005C
:040822000000FF00D3
:00000001FF
