:100000000EC020C01FC01EC01DC01CC01BC01AC017
:1000100019C018C017C016C015C014C013C01124D1
:100020001FBECFE5D2E0DEBFCDBF11E0A0E6B0E05D
:10003000E6E7F1E002C005900D92A036B107D9F7CE
:100040005AD097C0DDCF87B3836187BB8AB5836AF7
:100050008ABD83B7816083BF80B7816080BF8CB564
:1000600080668CBD8DB58FEF8DBD0895C29ABB9A09
:100070000895CF93DF93282F30E0F901E05AFF4F26
:10008000808188BDC9018B5A9F4FCFEFD0E0BE0160
:1000900049D0FC01E05AFF4F808189BDC9018655D6
:1000A0009F4FBE013FD0FC01E05AFF4F80818BBDC6
:1000B000DF91CF9108958FEF89BD8BBD88BD0895E5
:1000C00086B382FB882780F991E0892724E030E01D
:1000D00041E0EFE7FEE33197F1F700C0000096B38F
:1000E00092FB992790F99427891331E0215089F7E1
:1000F00031118FEF0895A7DFB9DFC0E0E1DF813074
:1001000069F4C11104C088B5809588BDC1E08FED48
:100110009EE20197F1F700C00000F0CF8111F7CF08
:10012000C0E0F5CF97FB072E16F4009406D077FDBC
:1001300008D00BD007FC05D03EF4909581959F4FD9
:100140000895709561957F4F0895AA1BBB1B51E1DF
:1001500007C0AA1FBB1FA617B70710F0A61BB70B37
:10016000881F991F5A95A9F780959095BC01CD01DC
:060170000895F894FFCF92
:1001760080868C92989EA5AAB0B6BCC1C6CBD0D5B7
:10018600DADEE2E6EAEDF0F3F5F8FAFBFDFEFEFF55
:10019600FFFFFEFEFDFBFAF8F5F3F0EDEAE6E2DE20
:1001A600DAD5D0CBC6C1BCB6B0AAA59E98928C862D
:1001B6008079736D67615A554F49433E39342F2A0A
:1001C60025211D1915120F0C0A070504020101004D
:1001D6000000000000000000000000000000000019
:1001E6000000000000000000000000000000000009
:1001F60000000000000000000000000000000000F9
:1002060000000000000000000000000000000000E8
:1002160000000000000000000000000000000000D8
:1002260000000000000000000000000000000000C8
:1002360000000000000000000000000000000000B8
:1002460000000000000000000000000000000000A8
:1002560000000101020405070A0C0F1215191D21E1
:10026600252A2F34393E43494F555A61676D7379B4
:00000001FF
