:100000000EC01DC01CC01BC01AC019C018C017C02C
:1000100016C015C014C013C012C011C010C01124E6
:100020001FBECFE5D2E0DEBFCDBF20E0A0E6B0E04E
:1000300001C01D92A536B207E1F761D06AC0E0CFDA
:1000400087B3836187BB8AB5836A8ABD83B78160C2
:1000500083BF80B7816080BF8CB580668CBD8DB555
:100060008FEF8DBD0895C29ABB9A08958091640068
:1000700096B341E092FB992790F99427891761F094
:1000800086B382FB882780F98427809364001092CE
:100090006300109262000895209162003091630025
:1000A0002D373105D8F42F5F3F4F309363002093F5
:1000B000620080916200909163000597F8F0809152
:1000C00064008823B9F080916000811117C08BB55E
:1000D00080958BBD81E080936000089590916100D0
:1000E0009111E7CF882329F388B5809588BD409387
:1000F0006100DFCF10926000109261000895A0DFD0
:10010000B2DFB4DF8FE79EE30197F1F700C0000094
:06011000F8CFF894FFCFC8
:00000001FF
